{
  "contractName": "DecentralizedCrowdFunding",
  "abi": [
    {
      "constant": true,
      "inputs": [],
      "name": "creator",
      "outputs": [
        {
          "name": "",
          "type": "address"
        }
      ],
      "payable": false,
      "stateMutability": "view",
      "type": "function"
    },
    {
      "constant": true,
      "inputs": [
        {
          "name": "",
          "type": "address"
        }
      ],
      "name": "terminateStatuses",
      "outputs": [
        {
          "name": "",
          "type": "bool"
        }
      ],
      "payable": false,
      "stateMutability": "view",
      "type": "function"
    },
    {
      "constant": true,
      "inputs": [],
      "name": "disbursementEndTime",
      "outputs": [
        {
          "name": "",
          "type": "uint256"
        }
      ],
      "payable": false,
      "stateMutability": "view",
      "type": "function"
    },
    {
      "constant": true,
      "inputs": [],
      "name": "fundingStartTime",
      "outputs": [
        {
          "name": "",
          "type": "uint256"
        }
      ],
      "payable": false,
      "stateMutability": "view",
      "type": "function"
    },
    {
      "constant": true,
      "inputs": [],
      "name": "terminatePercent",
      "outputs": [
        {
          "name": "",
          "type": "uint256"
        }
      ],
      "payable": false,
      "stateMutability": "view",
      "type": "function"
    },
    {
      "constant": true,
      "inputs": [],
      "name": "consensusPercent",
      "outputs": [
        {
          "name": "",
          "type": "uint256"
        }
      ],
      "payable": false,
      "stateMutability": "view",
      "type": "function"
    },
    {
      "constant": false,
      "inputs": [],
      "name": "unpause",
      "outputs": [],
      "payable": false,
      "stateMutability": "nonpayable",
      "type": "function"
    },
    {
      "constant": true,
      "inputs": [],
      "name": "objectionPercent",
      "outputs": [
        {
          "name": "",
          "type": "uint256"
        }
      ],
      "payable": false,
      "stateMutability": "view",
      "type": "function"
    },
    {
      "constant": true,
      "inputs": [],
      "name": "paused",
      "outputs": [
        {
          "name": "",
          "type": "bool"
        }
      ],
      "payable": false,
      "stateMutability": "view",
      "type": "function"
    },
    {
      "constant": true,
      "inputs": [
        {
          "name": "",
          "type": "uint256"
        }
      ],
      "name": "contributionAddresses",
      "outputs": [
        {
          "name": "",
          "type": "address"
        }
      ],
      "payable": false,
      "stateMutability": "view",
      "type": "function"
    },
    {
      "constant": false,
      "inputs": [],
      "name": "renounceOwnership",
      "outputs": [],
      "payable": false,
      "stateMutability": "nonpayable",
      "type": "function"
    },
    {
      "constant": true,
      "inputs": [],
      "name": "fundingEndTime",
      "outputs": [
        {
          "name": "",
          "type": "uint256"
        }
      ],
      "payable": false,
      "stateMutability": "view",
      "type": "function"
    },
    {
      "constant": false,
      "inputs": [],
      "name": "pause",
      "outputs": [],
      "payable": false,
      "stateMutability": "nonpayable",
      "type": "function"
    },
    {
      "constant": true,
      "inputs": [],
      "name": "owner",
      "outputs": [
        {
          "name": "",
          "type": "address"
        }
      ],
      "payable": false,
      "stateMutability": "view",
      "type": "function"
    },
    {
      "constant": true,
      "inputs": [
        {
          "name": "",
          "type": "address"
        }
      ],
      "name": "contributionAmounts",
      "outputs": [
        {
          "name": "",
          "type": "uint256"
        }
      ],
      "payable": false,
      "stateMutability": "view",
      "type": "function"
    },
    {
      "constant": true,
      "inputs": [
        {
          "name": "",
          "type": "address"
        }
      ],
      "name": "approvalDisbursementStatuses",
      "outputs": [
        {
          "name": "",
          "type": "bool"
        }
      ],
      "payable": false,
      "stateMutability": "view",
      "type": "function"
    },
    {
      "constant": true,
      "inputs": [],
      "name": "state",
      "outputs": [
        {
          "name": "",
          "type": "uint8"
        }
      ],
      "payable": false,
      "stateMutability": "view",
      "type": "function"
    },
    {
      "constant": true,
      "inputs": [],
      "name": "totalRaised",
      "outputs": [
        {
          "name": "",
          "type": "uint256"
        }
      ],
      "payable": false,
      "stateMutability": "view",
      "type": "function"
    },
    {
      "constant": true,
      "inputs": [],
      "name": "currentBalance",
      "outputs": [
        {
          "name": "",
          "type": "uint256"
        }
      ],
      "payable": false,
      "stateMutability": "view",
      "type": "function"
    },
    {
      "constant": true,
      "inputs": [],
      "name": "fundRecipient",
      "outputs": [
        {
          "name": "",
          "type": "address"
        }
      ],
      "payable": false,
      "stateMutability": "view",
      "type": "function"
    },
    {
      "constant": true,
      "inputs": [],
      "name": "disbursementAmount",
      "outputs": [
        {
          "name": "",
          "type": "uint256"
        }
      ],
      "payable": false,
      "stateMutability": "view",
      "type": "function"
    },
    {
      "constant": false,
      "inputs": [
        {
          "name": "_newOwner",
          "type": "address"
        }
      ],
      "name": "transferOwnership",
      "outputs": [],
      "payable": false,
      "stateMutability": "nonpayable",
      "type": "function"
    },
    {
      "constant": true,
      "inputs": [],
      "name": "targetFunding",
      "outputs": [
        {
          "name": "",
          "type": "uint256"
        }
      ],
      "payable": false,
      "stateMutability": "view",
      "type": "function"
    },
    {
      "constant": true,
      "inputs": [],
      "name": "campaignUrl",
      "outputs": [
        {
          "name": "",
          "type": "string"
        }
      ],
      "payable": false,
      "stateMutability": "view",
      "type": "function"
    },
    {
      "constant": true,
      "inputs": [],
      "name": "approvalPercent",
      "outputs": [
        {
          "name": "",
          "type": "uint256"
        }
      ],
      "payable": false,
      "stateMutability": "view",
      "type": "function"
    },
    {
      "inputs": [
        {
          "name": "_fundRecipient",
          "type": "address"
        },
        {
          "name": "_targetFunding",
          "type": "uint256"
        },
        {
          "name": "_campaignUrl",
          "type": "string"
        },
        {
          "name": "_fundingStartTime",
          "type": "uint256"
        },
        {
          "name": "_fundingEndTime",
          "type": "uint256"
        }
      ],
      "payable": false,
      "stateMutability": "nonpayable",
      "type": "constructor"
    },
    {
      "payable": true,
      "stateMutability": "payable",
      "type": "fallback"
    },
    {
      "anonymous": false,
      "inputs": [
        {
          "indexed": false,
          "name": "addr",
          "type": "address"
        },
        {
          "indexed": false,
          "name": "amount",
          "type": "uint256"
        },
        {
          "indexed": false,
          "name": "currentTotal",
          "type": "uint256"
        }
      ],
      "name": "LogFundingReceived",
      "type": "event"
    },
    {
      "anonymous": false,
      "inputs": [
        {
          "indexed": false,
          "name": "winnerAddress",
          "type": "address"
        }
      ],
      "name": "LogWinnerPaid",
      "type": "event"
    },
    {
      "anonymous": false,
      "inputs": [
        {
          "indexed": false,
          "name": "creator",
          "type": "address"
        },
        {
          "indexed": false,
          "name": "fundRecipient",
          "type": "address"
        },
        {
          "indexed": false,
          "name": "targetFunding",
          "type": "uint256"
        },
        {
          "indexed": false,
          "name": "campaignUrl",
          "type": "string"
        },
        {
          "indexed": false,
          "name": "fundingStartTime",
          "type": "uint256"
        },
        {
          "indexed": false,
          "name": "fundingEndTime",
          "type": "uint256"
        }
      ],
      "name": "LogFunderInitialized",
      "type": "event"
    },
    {
      "anonymous": false,
      "inputs": [],
      "name": "Pause",
      "type": "event"
    },
    {
      "anonymous": false,
      "inputs": [],
      "name": "Unpause",
      "type": "event"
    },
    {
      "anonymous": false,
      "inputs": [
        {
          "indexed": true,
          "name": "previousOwner",
          "type": "address"
        }
      ],
      "name": "OwnershipRenounced",
      "type": "event"
    },
    {
      "anonymous": false,
      "inputs": [
        {
          "indexed": true,
          "name": "previousOwner",
          "type": "address"
        },
        {
          "indexed": true,
          "name": "newOwner",
          "type": "address"
        }
      ],
      "name": "OwnershipTransferred",
      "type": "event"
    },
    {
      "constant": false,
      "inputs": [
        {
          "name": "_contributor",
          "type": "address"
        },
        {
          "name": "_value",
          "type": "uint256"
        }
      ],
      "name": "contribute",
      "outputs": [
        {
          "name": "success",
          "type": "bool"
        }
      ],
      "payable": false,
      "stateMutability": "nonpayable",
      "type": "function"
    },
    {
      "constant": false,
      "inputs": [
        {
          "name": "_value",
          "type": "uint256"
        }
      ],
      "name": "setConsensusPercent",
      "outputs": [
        {
          "name": "success",
          "type": "bool"
        }
      ],
      "payable": false,
      "stateMutability": "nonpayable",
      "type": "function"
    },
    {
      "constant": false,
      "inputs": [
        {
          "name": "_value",
          "type": "uint256"
        }
      ],
      "name": "setObjectionPercent",
      "outputs": [
        {
          "name": "success",
          "type": "bool"
        }
      ],
      "payable": false,
      "stateMutability": "nonpayable",
      "type": "function"
    },
    {
      "constant": false,
      "inputs": [
        {
          "name": "_value",
          "type": "uint256"
        }
      ],
      "name": "requestDisbursement",
      "outputs": [
        {
          "name": "success",
          "type": "bool"
        }
      ],
      "payable": false,
      "stateMutability": "nonpayable",
      "type": "function"
    },
    {
      "constant": false,
      "inputs": [
        {
          "name": "_value",
          "type": "uint256"
        }
      ],
      "name": "setDisbursementEndTime",
      "outputs": [
        {
          "name": "success",
          "type": "bool"
        }
      ],
      "payable": false,
      "stateMutability": "nonpayable",
      "type": "function"
    },
    {
      "constant": false,
      "inputs": [],
      "name": "approveDisbursement",
      "outputs": [
        {
          "name": "completed",
          "type": "bool"
        }
      ],
      "payable": false,
      "stateMutability": "nonpayable",
      "type": "function"
    },
    {
      "constant": false,
      "inputs": [],
      "name": "unapproveDisbursement",
      "outputs": [
        {
          "name": "completed",
          "type": "bool"
        }
      ],
      "payable": false,
      "stateMutability": "nonpayable",
      "type": "function"
    },
    {
      "constant": false,
      "inputs": [],
      "name": "terminateFunding",
      "outputs": [
        {
          "name": "completed",
          "type": "bool"
        }
      ],
      "payable": false,
      "stateMutability": "nonpayable",
      "type": "function"
    },
    {
      "constant": false,
      "inputs": [],
      "name": "unterminateFunding",
      "outputs": [
        {
          "name": "completed",
          "type": "bool"
        }
      ],
      "payable": false,
      "stateMutability": "nonpayable",
      "type": "function"
    },
    {
      "constant": false,
      "inputs": [],
      "name": "removeContract",
      "outputs": [],
      "payable": false,
      "stateMutability": "nonpayable",
      "type": "function"
    }
  ],
  "bytecode": "0x608060405260008060146101000a81548160ff02191690831515021790555060008060156101000a81548160ff021916908360028111156200003d57fe5b0217905550600060035560006005556000600655600060075560006008556000600b556000600c556000600d556033600f55600060105560336012553480156200008657600080fd5b50604051620029f7380380620029f78339810180604052810190808051906020019092919080519060200190929190805182019291906020018051906020019092919080519060200190929190505050336000806101000a81548173ffffffffffffffffffffffffffffffffffffffff021916908373ffffffffffffffffffffffffffffffffffffffff16021790555033600160006101000a81548173ffffffffffffffffffffffffffffffffffffffff021916908373ffffffffffffffffffffffffffffffffffffffff16021790555084600260006101000a81548173ffffffffffffffffffffffffffffffffffffffff021916908373ffffffffffffffffffffffffffffffffffffffff160217905550836003819055508260049080519060200190620001b792919062000361565b50816007819055508060088190555060006006819055507f7c6ea15a34ef5bf5704be2f4259fc778524e0739d841c3a825182a85eb85fec2600160009054906101000a900473ffffffffffffffffffffffffffffffffffffffff16600260009054906101000a900473ffffffffffffffffffffffffffffffffffffffff166003546004600754600854604051808773ffffffffffffffffffffffffffffffffffffffff1673ffffffffffffffffffffffffffffffffffffffff1681526020018673ffffffffffffffffffffffffffffffffffffffff1673ffffffffffffffffffffffffffffffffffffffff16815260200185815260200180602001848152602001838152602001828103825285818154600181600116156101000203166002900481526020019150805460018160011615610100020316600290048015620003435780601f10620003175761010080835404028352916020019162000343565b820191906000526020600020905b8154815290600101906020018083116200032557829003601f168201915b505097505050505050505060405180910390a1505050505062000410565b828054600181600116156101000203166002900490600052602060002090601f016020900481019282601f10620003a457805160ff1916838001178555620003d5565b82800160010185558215620003d5579182015b82811115620003d4578251825591602001919060010190620003b7565b5b509050620003e49190620003e8565b5090565b6200040d91905b8082111562000409576000816000905550600101620003ef565b5090565b90565b6125d780620004206000396000f3006080604052600436106101b7576000357c0100000000000000000000000000000000000000000000000000000000900463ffffffff16806302d05d3f146101c4578063128794ed1461021b57806319b711d7146102765780631df93558146102a1578063239f29dd146102cc57806324aa62fe1461031157806325b634c01461035657806331e62e41146103855780633edf7553146103b05780633f4ba83a146103db578063405e881c146103f25780634ff45d731461041d5780635c975abb1461044c5780635ef8ea301461047b578063620eb8ee146104e8578063715018a61461052d57806374eedd4614610544578063785da8171461056f5780638418cd991461059e5780638456cb59146106035780638da5cb5b1461061a5780638dc889f6146106715780639223de05146106b65780639c0b7c081461070d578063a8866f871461073c578063c19d93fb14610797578063c5c4744c146107d0578063ce845d1d146107fb578063d939c96014610826578063f28b7a9c1461087d578063f2fde38b146108a8578063f4d42453146108eb578063fa4f551114610916578063fe389e09146109a6578063fee6ed2a146109bd575b6101c133346109e8565b50005b3480156101d057600080fd5b506101d9610c75565b604051808273ffffffffffffffffffffffffffffffffffffffff1673ffffffffffffffffffffffffffffffffffffffff16815260200191505060405180910390f35b34801561022757600080fd5b5061025c600480360381019080803573ffffffffffffffffffffffffffffffffffffffff169060200190929190505050610c9b565b604051808215151515815260200191505060405180910390f35b34801561028257600080fd5b5061028b610cbb565b6040518082815260200191505060405180910390f35b3480156102ad57600080fd5b506102b6610cc1565b6040518082815260200191505060405180910390f35b3480156102d857600080fd5b506102f760048036038101908080359060200190929190505050610cc7565b604051808215151515815260200191505060405180910390f35b34801561031d57600080fd5b5061033c60048036038101908080359060200190929190505050610d79565b604051808215151515815260200191505060405180910390f35b34801561036257600080fd5b5061036b610e37565b604051808215151515815260200191505060405180910390f35b34801561039157600080fd5b5061039a6111d4565b6040518082815260200191505060405180910390f35b3480156103bc57600080fd5b506103c56111da565b6040518082815260200191505060405180910390f35b3480156103e757600080fd5b506103f06111e0565b005b3480156103fe57600080fd5b5061040761129e565b6040518082815260200191505060405180910390f35b34801561042957600080fd5b506104326112a4565b604051808215151515815260200191505060405180910390f35b34801561045857600080fd5b50610461611564565b604051808215151515815260200191505060405180910390f35b34801561048757600080fd5b506104a660048036038101908080359060200190929190505050611577565b604051808273ffffffffffffffffffffffffffffffffffffffff1673ffffffffffffffffffffffffffffffffffffffff16815260200191505060405180910390f35b3480156104f457600080fd5b50610513600480360381019080803590602001909291905050506115b5565b604051808215151515815260200191505060405180910390f35b34801561053957600080fd5b506105426116e7565b005b34801561055057600080fd5b506105596117e9565b6040518082815260200191505060405180910390f35b34801561057b57600080fd5b506105846117ef565b604051808215151515815260200191505060405180910390f35b3480156105aa57600080fd5b506105e9600480360381019080803573ffffffffffffffffffffffffffffffffffffffff169060200190929190803590602001909291905050506109e8565b604051808215151515815260200191505060405180910390f35b34801561060f57600080fd5b50610618611ab3565b005b34801561062657600080fd5b5061062f611b73565b604051808273ffffffffffffffffffffffffffffffffffffffff1673ffffffffffffffffffffffffffffffffffffffff16815260200191505060405180910390f35b34801561067d57600080fd5b5061069c60048036038101908080359060200190929190505050611b98565b604051808215151515815260200191505060405180910390f35b3480156106c257600080fd5b506106f7600480360381019080803573ffffffffffffffffffffffffffffffffffffffff169060200190929190505050611d91565b6040518082815260200191505060405180910390f35b34801561071957600080fd5b50610722611da9565b604051808215151515815260200191505060405180910390f35b34801561074857600080fd5b5061077d600480360381019080803573ffffffffffffffffffffffffffffffffffffffff1690602001909291905050506121f8565b604051808215151515815260200191505060405180910390f35b3480156107a357600080fd5b506107ac612218565b604051808260028111156107bc57fe5b60ff16815260200191505060405180910390f35b3480156107dc57600080fd5b506107e561222b565b6040518082815260200191505060405180910390f35b34801561080757600080fd5b50610810612231565b6040518082815260200191505060405180910390f35b34801561083257600080fd5b5061083b612237565b604051808273ffffffffffffffffffffffffffffffffffffffff1673ffffffffffffffffffffffffffffffffffffffff16815260200191505060405180910390f35b34801561088957600080fd5b5061089261225d565b6040518082815260200191505060405180910390f35b3480156108b457600080fd5b506108e9600480360381019080803573ffffffffffffffffffffffffffffffffffffffff169060200190929190505050612263565b005b3480156108f757600080fd5b506109006122ca565b6040518082815260200191505060405180910390f35b34801561092257600080fd5b5061092b6122d0565b6040518080602001828103825283818151815260200191508051906020019080838360005b8381101561096b578082015181840152602081019050610950565b50505050905090810190601f1680156109985780820380516001836020036101000a031916815260200191505b509250505060405180910390f35b3480156109b257600080fd5b506109bb61236e565b005b3480156109c957600080fd5b506109d2612428565b6040518082815260200191505060405180910390f35b60008060008060006002808111156109fc57fe5b600060159054906101000a900460ff166002811115610a1757fe5b14151515610a2457600080fd5b600354600554101515610a3657600080fd5b600086111515610a4557600080fd5b60006007541480610a5857506007544210155b1515610a6357600080fd5b60006008541480610a7657506008544211155b1515610a8157600080fd5b600a60008873ffffffffffffffffffffffffffffffffffffffff1673ffffffffffffffffffffffffffffffffffffffff16815260200190815260200160002054935085925060009150610adf8360055461242e90919063ffffffff16565b9050806003541015610b1a57610b0260055460035461244a90919063ffffffff16565b9250610b17838761244a90919063ffffffff16565b91505b610b2d848461242e90919063ffffffff16565b600a60008973ffffffffffffffffffffffffffffffffffffffff1673ffffffffffffffffffffffffffffffffffffffff168152602001908152602001600020819055506000821115610bc1578673ffffffffffffffffffffffffffffffffffffffff166108fc839081150290604051600060405180830381858888f19350505050158015610bbf573d6000803e3d6000fd5b505b610bd68360055461242e90919063ffffffff16565b600581905550610bf18360065461242e90919063ffffffff16565b6006819055506000841415610c675760098790806001815401808255809150509060018203906000526020600020016000909192909190916101000a81548173ffffffffffffffffffffffffffffffffffffffff021916908373ffffffffffffffffffffffffffffffffffffffff160217905550505b600194505050505092915050565b600160009054906101000a900473ffffffffffffffffffffffffffffffffffffffff1681565b60116020528060005260406000206000915054906101000a900460ff1681565b600c5481565b60075481565b6000600160009054906101000a900473ffffffffffffffffffffffffffffffffffffffff1673ffffffffffffffffffffffffffffffffffffffff163373ffffffffffffffffffffffffffffffffffffffff16141515610d2557600080fd5b60006002811115610d3257fe5b600060159054906101000a900460ff166002811115610d4d57fe5b141515610d5957600080fd5b60648211151515610d6957600080fd5b81600f8190555060019050919050565b6000600160009054906101000a900473ffffffffffffffffffffffffffffffffffffffff1673ffffffffffffffffffffffffffffffffffffffff163373ffffffffffffffffffffffffffffffffffffffff16141515610dd757600080fd5b60006002811115610de457fe5b600060159054906101000a900460ff166002811115610dff57fe5b141515610e0b57600080fd5b600082118015610e1c575060648211155b1515610e2757600080fd5b8160128190555060019050919050565b60008060008060016002811115610e4a57fe5b600060159054906101000a900460ff166002811115610e6557fe5b141515610e7157600080fd5b6000600554111515610e8257600080fd5b600b5460065410151515610e9557600080fd5b60011515600e60003373ffffffffffffffffffffffffffffffffffffffff1673ffffffffffffffffffffffffffffffffffffffff16815260200190815260200160002060009054906101000a900460ff16151514151515610ef557600080fd5b600a60003373ffffffffffffffffffffffffffffffffffffffff1673ffffffffffffffffffffffffffffffffffffffff168152602001908152602001600020549250600083111515610f4657600080fd5b6001600e60003373ffffffffffffffffffffffffffffffffffffffff1673ffffffffffffffffffffffffffffffffffffffff16815260200190815260200160002060006101000a81548160ff02191690831515021790555060009150600090505b6009805490508110156110da57600e6000600983815481101515610fc757fe5b9060005260206000200160009054906101000a900473ffffffffffffffffffffffffffffffffffffffff1673ffffffffffffffffffffffffffffffffffffffff1673ffffffffffffffffffffffffffffffffffffffff16815260200190815260200160002060009054906101000a900460ff16156110cd576110ca600a600060098481548110151561105557fe5b9060005260206000200160009054906101000a900473ffffffffffffffffffffffffffffffffffffffff1673ffffffffffffffffffffffffffffffffffffffff1673ffffffffffffffffffffffffffffffffffffffff168152602001908152602001600020548361242e90919063ffffffff16565b91505b8080600101915050610fa7565b6111026005546110f460648561246390919063ffffffff16565b61249b90919063ffffffff16565b600d81905550600f54600d541015156111c95761112c600b5460065461244a90919063ffffffff16565b60068190555060008060156101000a81548160ff0219169083600281111561115057fe5b0217905550600260009054906101000a900473ffffffffffffffffffffffffffffffffffffffff1673ffffffffffffffffffffffffffffffffffffffff166108fc600b549081150290604051600060405180830381858888f193505050501580156111bf573d6000803e3d6000fd5b50600193506111ce565b600093505b50505090565b60105481565b600f5481565b6000809054906101000a900473ffffffffffffffffffffffffffffffffffffffff1673ffffffffffffffffffffffffffffffffffffffff163373ffffffffffffffffffffffffffffffffffffffff1614151561123b57600080fd5b600060149054906101000a900460ff16151561125657600080fd5b60008060146101000a81548160ff0219169083151502179055507f7805862f689e2f13df9f062ff482ad3ad112aca9e0847911ed832e158c525b3360405160405180910390a1565b60125481565b600080600080600160028111156112b757fe5b600060159054906101000a900460ff1660028111156112d257fe5b1415156112de57600080fd5b60006005541115156112ef57600080fd5b600e60003373ffffffffffffffffffffffffffffffffffffffff1673ffffffffffffffffffffffffffffffffffffffff16815260200190815260200160002060009054906101000a900460ff16151561134757600080fd5b600a60003373ffffffffffffffffffffffffffffffffffffffff1673ffffffffffffffffffffffffffffffffffffffff16815260200190815260200160002054925060008311151561139857600080fd5b6000600e60003373ffffffffffffffffffffffffffffffffffffffff1673ffffffffffffffffffffffffffffffffffffffff16815260200190815260200160002060006101000a81548160ff02191690831515021790555060009150600090505b60098054905081101561152c57600e600060098381548110151561141957fe5b9060005260206000200160009054906101000a900473ffffffffffffffffffffffffffffffffffffffff1673ffffffffffffffffffffffffffffffffffffffff1673ffffffffffffffffffffffffffffffffffffffff16815260200190815260200160002060009054906101000a900460ff161561151f5761151c600a60006009848154811015156114a757fe5b9060005260206000200160009054906101000a900473ffffffffffffffffffffffffffffffffffffffff1673ffffffffffffffffffffffffffffffffffffffff1673ffffffffffffffffffffffffffffffffffffffff168152602001908152602001600020548361242e90919063ffffffff16565b91505b80806001019150506113f9565b61155460055461154660648561246390919063ffffffff16565b61249b90919063ffffffff16565b600d819055506001935050505090565b600060149054906101000a900460ff1681565b60098181548110151561158657fe5b906000526020600020016000915054906101000a900473ffffffffffffffffffffffffffffffffffffffff1681565b6000600160028111156115c457fe5b600060159054906101000a900460ff1660028111156115df57fe5b141515156115ec57600080fd5b610e10420182101515156115ff57600080fd5b600160009054906101000a900473ffffffffffffffffffffffffffffffffffffffff1673ffffffffffffffffffffffffffffffffffffffff163373ffffffffffffffffffffffffffffffffffffffff1614806116a85750600260009054906101000a900473ffffffffffffffffffffffffffffffffffffffff1673ffffffffffffffffffffffffffffffffffffffff163373ffffffffffffffffffffffffffffffffffffffff16145b15156116b357600080fd5b81600c819055506001600060156101000a81548160ff021916908360028111156116d957fe5b021790555060019050919050565b6000809054906101000a900473ffffffffffffffffffffffffffffffffffffffff1673ffffffffffffffffffffffffffffffffffffffff163373ffffffffffffffffffffffffffffffffffffffff1614151561174257600080fd5b6000809054906101000a900473ffffffffffffffffffffffffffffffffffffffff1673ffffffffffffffffffffffffffffffffffffffff167ff8df31144d9c2f0f6b59d69b8b98abd5459d07f2742c4df920b25aae33c6482060405160405180910390a260008060006101000a81548173ffffffffffffffffffffffffffffffffffffffff021916908373ffffffffffffffffffffffffffffffffffffffff160217905550565b60085481565b60008060008060028081111561180157fe5b600060159054906101000a900460ff16600281111561181c57fe5b1415151561182957600080fd5b600060055411151561183a57600080fd5b601160003373ffffffffffffffffffffffffffffffffffffffff1673ffffffffffffffffffffffffffffffffffffffff16815260200190815260200160002060009054906101000a900460ff16151561189257600080fd5b600a60003373ffffffffffffffffffffffffffffffffffffffff1673ffffffffffffffffffffffffffffffffffffffff1681526020019081526020016000205492506000831115156118e357600080fd5b6000601160003373ffffffffffffffffffffffffffffffffffffffff1673ffffffffffffffffffffffffffffffffffffffff16815260200190815260200160002060006101000a81548160ff0219169083151502179055506000915060009050600090505b600980549050811015611a7b576011600060098381548110151561196857fe5b9060005260206000200160009054906101000a900473ffffffffffffffffffffffffffffffffffffffff1673ffffffffffffffffffffffffffffffffffffffff1673ffffffffffffffffffffffffffffffffffffffff16815260200190815260200160002060009054906101000a900460ff1615611a6e57611a6b600a60006009848154811015156119f657fe5b9060005260206000200160009054906101000a900473ffffffffffffffffffffffffffffffffffffffff1673ffffffffffffffffffffffffffffffffffffffff1673ffffffffffffffffffffffffffffffffffffffff168152602001908152602001600020548361242e90919063ffffffff16565b91505b8080600101915050611948565b611aa3600554611a9560648561246390919063ffffffff16565b61249b90919063ffffffff16565b6010819055506001935050505090565b6000809054906101000a900473ffffffffffffffffffffffffffffffffffffffff1673ffffffffffffffffffffffffffffffffffffffff163373ffffffffffffffffffffffffffffffffffffffff16141515611b0e57600080fd5b600060149054906101000a900460ff16151515611b2a57600080fd5b6001600060146101000a81548160ff0219169083151502179055507f6985a02210a168e66602d3235cb6db0e70f92b3ba4d376a33c0f3d9434bff62560405160405180910390a1565b6000809054906101000a900473ffffffffffffffffffffffffffffffffffffffff1681565b60008060006002811115611ba857fe5b600060159054906101000a900460ff166002811115611bc357fe5b141515611bcf57600080fd5b6000600554111515611be057600080fd5b600083111515611bef57600080fd5b8260065410151515611c0057600080fd5b600160009054906101000a900473ffffffffffffffffffffffffffffffffffffffff1673ffffffffffffffffffffffffffffffffffffffff163373ffffffffffffffffffffffffffffffffffffffff161480611ca95750600260009054906101000a900473ffffffffffffffffffffffffffffffffffffffff1673ffffffffffffffffffffffffffffffffffffffff163373ffffffffffffffffffffffffffffffffffffffff16145b1515611cb457600080fd5b82600b819055506000600d81905550600060108190555062093a804201600c81905550600090505b600980549050811015611d87576000600e6000600984815481101515611cfe57fe5b9060005260206000200160009054906101000a900473ffffffffffffffffffffffffffffffffffffffff1673ffffffffffffffffffffffffffffffffffffffff1673ffffffffffffffffffffffffffffffffffffffff16815260200190815260200160002060006101000a81548160ff0219169083151502179055508080600101915050611cdc565b6001915050919050565b600a6020528060005260406000206000915090505481565b600080600080600080600280811115611dbe57fe5b600060159054906101000a900460ff166002811115611dd957fe5b14151515611de657600080fd5b6000600554111515611df757600080fd5b60011515601160003373ffffffffffffffffffffffffffffffffffffffff1673ffffffffffffffffffffffffffffffffffffffff16815260200190815260200160002060009054906101000a900460ff16151514151515611e5757600080fd5b600a60003373ffffffffffffffffffffffffffffffffffffffff1673ffffffffffffffffffffffffffffffffffffffff168152602001908152602001600020549450600085111515611ea857600080fd5b6001601160003373ffffffffffffffffffffffffffffffffffffffff1673ffffffffffffffffffffffffffffffffffffffff16815260200190815260200160002060006101000a81548160ff021916908315150217905550600093506000925060009150600091505b6009805490508210156120445760116000600984815481101515611f3157fe5b9060005260206000200160009054906101000a900473ffffffffffffffffffffffffffffffffffffffff1673ffffffffffffffffffffffffffffffffffffffff1673ffffffffffffffffffffffffffffffffffffffff16815260200190815260200160002060009054906101000a900460ff161561203757612034600a6000600985815481101515611fbf57fe5b9060005260206000200160009054906101000a900473ffffffffffffffffffffffffffffffffffffffff1673ffffffffffffffffffffffffffffffffffffffff1673ffffffffffffffffffffffffffffffffffffffff168152602001908152602001600020548561242e90919063ffffffff16565b93505b8180600101925050611f11565b61206c60055461205e60648761246390919063ffffffff16565b61249b90919063ffffffff16565b6010819055506012546010541015156121eb576006549050600091505b6009805490508210156121db57612137600554612129600654600a60006009888154811015156120b557fe5b9060005260206000200160009054906101000a900473ffffffffffffffffffffffffffffffffffffffff1673ffffffffffffffffffffffffffffffffffffffff1673ffffffffffffffffffffffffffffffffffffffff1681526020019081526020016000205461246390919063ffffffff16565b61249b90919063ffffffff16565b925061214c838261244a90919063ffffffff16565b905060098281548110151561215d57fe5b9060005260206000200160009054906101000a900473ffffffffffffffffffffffffffffffffffffffff1673ffffffffffffffffffffffffffffffffffffffff166108fc849081150290604051600060405180830381858888f193505050501580156121cd573d6000803e3d6000fd5b508180600101925050612089565b80600681905550600195506121f0565b600095505b505050505090565b600e6020528060005260406000206000915054906101000a900460ff1681565b600060159054906101000a900460ff1681565b60055481565b60065481565b600260009054906101000a900473ffffffffffffffffffffffffffffffffffffffff1681565b600b5481565b6000809054906101000a900473ffffffffffffffffffffffffffffffffffffffff1673ffffffffffffffffffffffffffffffffffffffff163373ffffffffffffffffffffffffffffffffffffffff161415156122be57600080fd5b6122c7816124b1565b50565b60035481565b60048054600181600116156101000203166002900480601f0160208091040260200160405190810160405280929190818152602001828054600181600116156101000203166002900480156123665780601f1061233b57610100808354040283529160200191612366565b820191906000526020600020905b81548152906001019060200180831161234957829003601f168201915b505050505081565b600160009054906101000a900473ffffffffffffffffffffffffffffffffffffffff1673ffffffffffffffffffffffffffffffffffffffff163373ffffffffffffffffffffffffffffffffffffffff161415156123ca57600080fd5b6002808111156123d657fe5b600060159054906101000a900460ff1660028111156123f157fe5b1480612404575042620151806008540110155b151561240f57600080fd5b3373ffffffffffffffffffffffffffffffffffffffff16ff5b600d5481565b6000818301905082811015151561244157fe5b80905092915050565b600082821115151561245857fe5b818303905092915050565b6000808314156124765760009050612495565b818302905081838281151561248757fe5b0414151561249157fe5b8090505b92915050565b600081838115156124a857fe5b04905092915050565b600073ffffffffffffffffffffffffffffffffffffffff168173ffffffffffffffffffffffffffffffffffffffff16141515156124ed57600080fd5b8073ffffffffffffffffffffffffffffffffffffffff166000809054906101000a900473ffffffffffffffffffffffffffffffffffffffff1673ffffffffffffffffffffffffffffffffffffffff167f8be0079c531659141344cd1fd0a4f28419497f9722a3daafe3b4186f6b6457e060405160405180910390a3806000806101000a81548173ffffffffffffffffffffffffffffffffffffffff021916908373ffffffffffffffffffffffffffffffffffffffff160217905550505600a165627a7a723058207cc40fcb08d10459821783b99ac1da639a0ed371ac15c4c4137ee018b7c6eab10029",
  "source": "pragma solidity ^0.4.23;\n\nimport \"zeppelin-solidity/contracts/ownership/Ownable.sol\";\nimport \"zeppelin-solidity/contracts/math/SafeMath.sol\";\nimport \"zeppelin-solidity/contracts/lifecycle/Pausable.sol\";\n\n\ncontract DecentralizedCrowdFunding is Pausable {\n    using SafeMath for uint256;\n\n    // campaign states\n    enum State {\n        Running,\n        DisbursementPending,\n        Closed\n    }\n\n    State public state = State.Running;\n\n    address public creator;\n    address public fundRecipient;\n    uint256 public targetFunding = 0;\n    string public campaignUrl;\n\n    uint256 public totalRaised = 0;\n    uint256 public currentBalance = 0;\n\n    uint256 public fundingStartTime = 0;\n    uint256 public fundingEndTime = 0;\n\n    address[] public contributionAddresses;\n    mapping(address => uint256) public contributionAmounts;\n\n    uint256 public disbursementAmount = 0;\n    uint256 public disbursementEndTime = 0;\n\n    uint256 public approvalPercent = 0;\n    mapping(address => bool) public approvalDisbursementStatuses;\n    uint public consensusPercent = 51;\n\n    uint256 public terminatePercent = 0;\n    mapping(address => bool) public terminateStatuses;\n    uint public objectionPercent = 51;\n\n    event LogFundingReceived(address addr, uint256 amount, uint256 currentTotal);\n    event LogWinnerPaid(address winnerAddress);\n    event LogFunderInitialized(address creator, address fundRecipient, uint256 targetFunding, string campaignUrl, uint256 fundingStartTime, uint256 fundingEndTime);\n\n    modifier inState(State _state) {\n        require(state == _state);\n        _;\n    }\n\n    modifier isCreator() {\n        require(msg.sender == creator);\n        _;\n    }\n\n    // Wait 1 day after final contract state before allowing contract destruction\n    modifier atEndOfLifecycle() {\n        require(state == State.Closed || fundingEndTime + 1 days >= now);\n        _;\n    }\n\n    constructor(address _fundRecipient, uint256 _targetFunding, string _campaignUrl, uint256 _fundingStartTime, uint256 _fundingEndTime) public {\n        creator = msg.sender;\n        fundRecipient = _fundRecipient;\n        targetFunding = _targetFunding;\n        campaignUrl = _campaignUrl;\n        fundingStartTime = _fundingStartTime;\n        fundingEndTime = _fundingEndTime;\n        currentBalance = 0;\n        emit LogFunderInitialized(creator, fundRecipient, targetFunding, campaignUrl, fundingStartTime, fundingEndTime);\n    }\n\n    function() public payable {\n        contribute(msg.sender, msg.value);\n    }\n\n    function contribute(address _contributor, uint256 _value) public returns (bool success) {\n        require(state != State.Closed);\n        require(totalRaised < targetFunding);\n        require(_value > 0);\n        require(fundingStartTime == 0 || now >= fundingStartTime);\n        require(fundingEndTime == 0 || now <= fundingEndTime);\n\n        uint256 prevAmt = contributionAmounts[_contributor];\n\n        uint256 contributingAmt = _value;\n        uint256 refundAmt = 0;\n\n        uint256 checkedTotalRaised = totalRaised.add(contributingAmt);\n        if (targetFunding < checkedTotalRaised) {\n            contributingAmt = targetFunding.sub(totalRaised);\n            refundAmt = _value.sub(contributingAmt);\n        }\n\n        contributionAmounts[_contributor] = contributingAmt.add(prevAmt);\n\n        // refund in case user contribute over target funding\n        if (refundAmt > 0) {\n            _contributor.transfer(refundAmt);\n        }\n\n        totalRaised = totalRaised.add(contributingAmt);\n        currentBalance = currentBalance.add(contributingAmt);\n        if (prevAmt == 0) {\n            contributionAddresses.push(_contributor);\n        }\n\n        return true;\n    }\n\n    function setConsensusPercent(uint _value) public isCreator() returns (bool success) {\n        require(state == State.Running);\n        // Only set before request disbursement\n        require(_value <= 100);\n        consensusPercent = _value;\n        return true;\n    }\n\n    function setObjectionPercent(uint _value) public isCreator() returns (bool success) {\n        require(state == State.Running);\n        // Only set before request disbursement\n        require(_value > 0 && _value <= 100);\n        objectionPercent = _value;\n        return true;\n    }\n\n    function requestDisbursement(uint256 _value) public returns (bool success) {\n        require(state == State.Running);\n        require(totalRaised > 0);\n        require(_value > 0);\n        require(currentBalance >= _value);\n        require(msg.sender == creator || msg.sender == fundRecipient);\n        disbursementAmount = _value;\n        // state = State.DisbursementPending;\n        approvalPercent = 0;\n        terminatePercent = 0;\n        disbursementEndTime = now + 7 days;\n        for (uint i = 0; i < contributionAddresses.length; i++) {\n            approvalDisbursementStatuses[contributionAddresses[i]] = false;\n        }\n        return true;\n    }\n\n    function setDisbursementEndTime(uint256 _value) public returns (bool success) {\n        require(state != State.DisbursementPending);\n        require(_value >= now + 1 hours);\n        require(msg.sender == creator || msg.sender == fundRecipient);\n        disbursementEndTime = _value;\n        state = State.DisbursementPending;\n        // change state after owner set end time\n        return true;\n    }\n\n    function approveDisbursement() public returns (bool completed) {\n        require(state == State.DisbursementPending);\n        require(totalRaised > 0);\n        require(currentBalance >= disbursementAmount);\n        require(approvalDisbursementStatuses[msg.sender] != true);\n        uint256 contributedAmt = contributionAmounts[msg.sender];\n        require(contributedAmt > 0);\n        approvalDisbursementStatuses[msg.sender] = true;\n        uint256 totalApprovalAmt = 0;\n        for (uint i = 0; i < contributionAddresses.length; i++) {\n            if (approvalDisbursementStatuses[contributionAddresses[i]])\n                totalApprovalAmt = totalApprovalAmt.add(contributionAmounts[contributionAddresses[i]]);\n        }\n        approvalPercent = totalApprovalAmt.mul(100).div(totalRaised);\n        if (approvalPercent >= consensusPercent) {\n            currentBalance = currentBalance.sub(disbursementAmount);\n            state = State.Running;\n            fundRecipient.transfer(disbursementAmount);\n            return true;\n        }\n        return false;\n    }\n\n    function unapproveDisbursement() public returns (bool completed) {\n        require(state == State.DisbursementPending);\n        require(totalRaised > 0);\n        require(approvalDisbursementStatuses[msg.sender]);\n        uint256 contributedAmt = contributionAmounts[msg.sender];\n        require(contributedAmt > 0);\n        approvalDisbursementStatuses[msg.sender] = false;\n        uint256 totalApprovalAmt = 0;\n        for (uint i = 0; i < contributionAddresses.length; i++) {\n            if (approvalDisbursementStatuses[contributionAddresses[i]])\n                totalApprovalAmt = totalApprovalAmt.add(contributionAmounts[contributionAddresses[i]]);\n        }\n        approvalPercent = totalApprovalAmt.mul(100).div(totalRaised);\n        return true;\n    }\n\n    function terminateFunding() public returns (bool completed) {\n        require(state != State.Closed);\n        require(totalRaised > 0);\n        require(terminateStatuses[msg.sender] != true);\n        uint256 contributedAmt = contributionAmounts[msg.sender];\n        require(contributedAmt > 0);\n        terminateStatuses[msg.sender] = true;\n        uint256 totalTerminateAmt = 0;\n        uint256 refundAmt = 0;\n        uint i = 0;\n        for (i = 0; i < contributionAddresses.length; i++) {\n            if (terminateStatuses[contributionAddresses[i]])\n                totalTerminateAmt = totalTerminateAmt.add(contributionAmounts[contributionAddresses[i]]);\n        }\n        terminatePercent = totalTerminateAmt.mul(100).div(totalRaised);\n        if (terminatePercent >= objectionPercent) {\n            uint256 bal = currentBalance;\n            for (i = 0; i < contributionAddresses.length; i++) {\n                refundAmt = contributionAmounts[contributionAddresses[i]].mul(currentBalance).div(totalRaised);\n                bal = bal.sub(refundAmt);\n                contributionAddresses[i].transfer(refundAmt);\n            }\n            currentBalance = bal;\n            return true;\n        }\n        return false;\n    }\n\n    function unterminateFunding() public returns (bool completed) {\n        require(state != State.Closed);\n        require(totalRaised > 0);\n        require(terminateStatuses[msg.sender]);\n        uint256 contributedAmt = contributionAmounts[msg.sender];\n        require(contributedAmt > 0);\n        terminateStatuses[msg.sender] = false;\n        uint256 totalTerminateAmt = 0;\n        uint i = 0;\n        for (i = 0; i < contributionAddresses.length; i++) {\n            if (terminateStatuses[contributionAddresses[i]])\n                totalTerminateAmt = totalTerminateAmt.add(contributionAmounts[contributionAddresses[i]]);\n        }\n        terminatePercent = totalTerminateAmt.mul(100).div(totalRaised);\n        return true;\n    }\n\n    function removeContract() public isCreator() atEndOfLifecycle() {\n        selfdestruct(msg.sender);\n        // creator gets all money that hasn't be claimed\n    }\n}\n",
  "sourcePath": "/home/cqshinn/GIT/vccloud/dev-team/dappathon/newcater/decentralized-crowd-funding/contracts/DecentralizedCrowdFunding.sol",
  "compiler": {
    "name": "solc",
    "version": "0.4.24+commit.e67f0147.Emscripten.clang"
  },
  "schemaVersion": "2.0.1",
  "updatedAt": "2019-08-02T11:52:34.057Z"
}